:1000000072C000009EC000009CC000009AC00000AA
:1000100098C0000096C0000094C0000092C000008C
:1000200090C000008EC000008CC000008AC000009C
:1000300088C0000086C0000084C0000082C00000AC
:1000400080C000007EC000007CC000007AC00000BC
:1000500078C0000076C0000074C000001AC2000022
:1000600070C00000E0C10000B5C100006AC000001F
:1000700068C0000066C0000064C0000062C00000EC
:1000800060C000005EC000005CC000005AC00000FC
:1000900058C0000056C0000054C0000052C000000C
:1000A00050C000004EC000004CC000004AC000001C
:1000B00048C0000046C0000044C0000042C000002C
:1000C00040C000003EC000003CC000003AC000003C
:1000D00038C0000036C0000034C0000032C000004C
:1000E00030C00000940311241FBECFEFD1E2DEBF69
:1000F000CDBF00E00CBF12E0A0E0B2E0E0E3FDE025
:1001000000E00BBF02C007900D92AA31B107D9F7EA
:1001100023E0AAE1B2E001C01D92A432B207E1F7E8
:1001200010E0C3E7D0E000E005C021970109802F6F
:10013000FE0127D3C237D10780E00807B1F7F3D11A
:10014000F5C55ECFCF92DF92EF92FF920F931F9390
:10015000CF93DF936C017A018B01C0E0D0E0CE1524
:10016000DF0589F0D8016D918D01D601ED91FC91EB
:100170000190F081E02DC6011995892B11F47E01C3
:1001800002C02196ECCFC701DF91CF911F910F9153
:10019000FF90EF90DF90CF900895FC01918D828DBC
:1001A000981761F0828DDF01A80FB11D5D968C91CB
:1001B000928D9F5F9F73928F90E008958FEF9FEFD6
:1001C0000895FC01918D828D981731F0828DE80F92
:1001D000F11D858D90E008958FEF9FEF0895FC014C
:1001E000918D228D892F90E0805C9F4F821B910919
:1001F0008F739927089583E292E0F1DF21E0892B44
:1002000009F420E0822F0895FC01848DDF01A80FFE
:10021000B11DA35ABF4F2C91848D90E001968F732E
:100220009927848FA689B7892C93A089B1898C914D
:1002300080648C93938D848D981306C00288F38913
:10024000E02D80818F7D80830895EF92FF920F9340
:100250001F93CF93DF93EC0181E0888F9B8D8C8D72
:10026000981305C0E889F989808185FD23C0F62EA1
:100270000B8D10E00F5F1F4F0F731127E02E8C8D39
:10028000E8120BC00FB607FCFACFE889F989808124
:1002900085FFF5CFCE01B8DFF2CF8B8DFE01E80FE1
:1002A000F11DE35AFF4FF0820B8FEA89FB898081B1
:1002B000806207C0EE89FF896083E889F9898081BF
:1002C0008064808381E090E0DF91CF911F910F9156
:1002D000FF90EF900895CF93DF93EC01888D8823F2
:1002E000C1F0EA89FB89808185FD05C0A889B989AB
:1002F0008C9186FD0EC00FB607FCF5CF808185FF7F
:10030000F2CFA889B9898C9185FFEDCFCE017CDF32
:10031000E8CFDF91CF91089580E090E0892B19F02C
:100320006ADF811125C080E090E0892B41F080E0F8
:1003300090E0892B21F00E94000081111CC080E018
:1003400090E0892B41F080E090E0892B21F00E9421
:100350000000811113C080E090E0892BA1F080E0C3
:1003600090E0892B81F00E94000081110AC008955D
:100370000E940000D8CF0E940000E1CF0E94000040
:10038000EACF0C94000008953FB7F89480911F02C3
:1003900090912002A0912102B091220226B5A89B43
:1003A00005C02F3F19F00196A11DB11D3FBFBA2F07
:1003B000A92F982F8827820F911DA11DB11DBC0167
:1003C000CD0142E0660F771F881F991F4A95D1F72C
:1003D0000895DFD11F920F920FB60F9211240BB622
:1003E0000F922F933F934F935F936F937F938F93CE
:1003F0009F93AF93BF93EF93FF9383E292E004DF69
:10040000FF91EF91BF91AF919F918F917F916F91EC
:100410005F914F913F912F910F900BBE0F900FBEA8
:100420000F901F9018951F920F920FB60F921124E4
:100430000BB60F922F938F939F93EF93FF93E091BF
:100440003302F09134028081E0913902F0913A0256
:1004500082FD12C0908180913C028F5F8F7320914A
:100460003D02821751F0E0913C02F0E0ED5DFD4F5E
:10047000958F80933C0201C08081FF91EF919F9105
:100480008F912F910F900BBE0F900FBE0F901F906A
:1004900018951F920F920FB60F9211242F933F932E
:1004A0008F939F93AF93BF9380911B0290911C02F7
:1004B000A0911D02B0911E0230911A0223E0230F79
:1004C0002D3720F40196A11DB11D05C026E8230F8C
:1004D0000296A11DB11D20931A0280931B029093D6
:1004E0001C02A0931D02B0931E0280911F029091E6
:1004F0002002A0912102B09122020196A11DB11DFE
:1005000080931F0290932002A0932102B0932202B5
:10051000BF91AF919F918F913F912F910F900FBEFF
:100520000F901F901895789484B5826084BD84B52F
:10053000816084BD85B5826085BD85B5816085BDDE
:1005400080916E00816080936E0010928100809196
:10055000810082608093810080918100816080931E
:100560008100809180008160809380008091B10043
:1005700084608093B1008091B00081608093B0006E
:1005800080919100826080939100809191008160C0
:100590008093910080919000816080939000809181
:1005A000A10082608093A1008091A100816080936E
:1005B000A1008091A00081608093A0008091210122
:1005C00082608093210180912101816080932101CB
:1005D0008091200181608093200180917A00846065
:1005E00080937A0080917A00826080937A00809173
:1005F0007A00816080937A0080917A00806880938D
:100600007A001092C100E0913302F091340282E04E
:100610008083E0912F02F09130021082E09131024C
:10062000F09132028FEC808310923B02E09137020E
:10063000F091380286E08083E0913502F091360235
:10064000808180618083E0913502F0913602808163
:1006500088608083E0913502F09136028081806865
:100660008083E0913502F091360280818F7D808316
:1006700090E4B92E00E112E0C0ECD2E085DE2B015F
:100680003C0184E6C82ED12CE12CF12C7DDEDC016E
:10069000CB0184199509A609B709883E9340A105A5
:1006A000B10558F021E0C21AD108E108F10888EE3E
:1006B000480E83E0581E611C711CC114D104E10472
:1006C000F10421F780917B00877F80937B00B092BB
:1006D0007C0080917A00806480937A0080917A0017
:1006E00086FDFCCF809178002091790090E0922BDC
:1006F0009F938F931F930F93DF93CF934ED00F90C1
:100700000F900F900F900F900F90FE01019000201E
:10071000E9F73197AF01405C524060EC72E083E250
:1007200092E010DDF9DDAACFE3E2F2E0138212825B
:1007300088EE93E0A0E0B0E084839583A683B7833E
:1007400084E092E09183808385EC90E095878487B4
:1007500084EC90E09787868780EC90E0918B808B8B
:1007600081EC90E0938B828B82EC90E0958B848B74
:1007700086EC90E0978B868B118E128E138E148EE2
:100780000895EE0FFF1F881F8BBF0790F691E02D95
:10079000199481E090E0F894C9C20F931F93CF930E
:1007A000DF93CDB7DEB72E970FB6F894DEBF0FBE3E
:1007B000CDBF0E891F8986E08C831A8309838FEF52
:1007C0009FE79E838D83AE01465E5F4F688D798D76
:1007D000CE01019611D02F813885F801E20FF31F69
:1007E00010822E960FB6F894DEBF0FBECDBFDF91FC
:1007F000CF911F910F9108952F923F924F925F9248
:100800006F927F928F929F92AF92BF92CF92DF9220
:10081000EF92FF920F931F93CF93DF93CDB7DEB785
:100820002C970FB6F894DEBF0FBECDBF7C016B01D5
:100830008A01FC0117821682838181FFB0C1CE013B
:1008400001964C01F7019381F60193FD859193FF89
:1008500081916F01882309F49EC1853239F493FD9B
:10086000859193FF81916F01853221F4B70190E06A
:10087000C7D1E8CF512C312C20E02032A0F48B32AC
:1008800069F030F4803259F0833269F420612CC071
:100890008D3239F0803339F4216026C02260246023
:1008A00023C0286021C027FD27C030ED380F3A3023
:1008B00078F426FF06C0FAE05F9E300D1124532E17
:1008C00013C08AE0389E300D1124332E20620CC0F4
:1008D0008E3221F426FD5FC1206406C08C3611F4EF
:1008E000206802C0883641F4F60193FD859193FF9C
:1008F00081916F018111C1CF982F9F7D95549330C5
:1009000028F40C5F1F4FFFE3F9830DC0833631F0ED
:10091000833771F0833509F057C021C0F801808119
:1009200089830E5F1F4F44244394512C540114C0FB
:100930003801F2E06F0E711CF801A080B18026FF33
:1009400003C0652D70E002C06FEF7FEFC5012C87FB
:100950004CD12C0183012C852F77222E16C0380113
:10096000F2E06F0E711CF801A080B18026FF03C079
:10097000652D70E002C06FEF7FEFC5012C872AD193
:100980002C012C852068222E830123FC19C0832D85
:1009900090E048165906A0F4B70180E290E030D10B
:1009A0003A94F5CFF50127FC859127FE81915F01EF
:1009B000B70190E025D131103A94F1E04F1A510877
:1009C0004114510479F7DEC0843611F0893631F5CF
:1009D000F80127FF07C060817181828193810C5FDC
:1009E0001F4F08C060817181072E000C880B990B86
:1009F0000E5F1F4F2F76722E97FF09C0909580953E
:100A0000709561957F4F8F4F9F4F2068722E2AE01F
:100A100030E0A4012DD1A82EA81843C0853729F4B1
:100A20002F7EB22E2AE030E025C0F22FF97FBF2EB4
:100A30008F36C1F018F4883579F0ADC0803719F0E1
:100A4000883721F0A8C02F2F2061B22EB4FE0DC030
:100A50008B2D8460B82E09C024FF0AC09F2F96609A
:100A6000B92E06C028E030E005C020E130E002C029
:100A700020E132E0F801B7FE07C060817181828118
:100A800093810C5F1F4F06C06081718180E090E010
:100A90000E5F1F4FA401ECD0A82EA818FB2DFF77E6
:100AA0007F2E76FE0BC0372D3E7FA51450F474FECA
:100AB0000AC072FC08C0372D3E7E05C0BA2C372D07
:100AC00003C0BA2C01C0B52C34FF0DC0FE01EA0DE5
:100AD000F11D8081803311F4397E09C032FF06C0D8
:100AE000B394B39404C0832F867809F0B39433FD94
:100AF00012C030FF06C05A2CB31418F4530C5B1804
:100B0000B32CB31460F4B70180E290E03C8778D056
:100B1000B3943C85F6CFB31410F43B1801C0312CCC
:100B200034FF11C0B70180E390E03C8769D03C8579
:100B300032FF16C031FD03C088E790E002C088E5AF
:100B400090E0B7010CC0832F867851F031FF02C0CE
:100B50008BE201C080E237FD8DE2B70190E050D01A
:100B6000A51430F4B70180E390E04AD05A94F8CF4E
:100B7000AA94F401EA0DF11D8081B70190E040D004
:100B8000A110F6CF332009F45DCEB70180E290E0EA
:100B900037D03A94F7CFF7018681978102C08FEF63
:100BA0009FEF2C960FB6F894DEBF0FBECDBFDF913E
:100BB000CF911F910F91FF90EF90DF90CF90BF905A
:100BC000AF909F908F907F906F905F904F903F90ED
:100BD0002F900895FC010590615070400110D8F7E6
:100BE000809590958E0F9F1F0895FC016150704075
:100BF00001900110D8F7809590958E0F9F1F089552
:100C00000F931F93CF93DF93FB01238121FD03C03B
:100C10008FEF9FEF28C022FF16C0468157812481A5
:100C200035814217530744F4A081B1819D012F5FA4
:100C30003F4F318320838C93268137812F5F3F4F35
:100C40003783268310C0EB01092F182F0084F1850C
:100C5000E02D1995892BE1F68E819F8101969F8366
:100C60008E83812F902FDF91CF911F910F91089547
:100C7000FA01AA27283051F1203181F1E8946F93CD
:100C80006E7F6E5F7F4F8F4F9F4FAF4FB1E03ED073
:100C9000B4E03CD0670F781F891F9A1FA11D680F11
:100CA000791F8A1F911DA11D6A0F711D811D911D44
:100CB000A11D20D009F468943F912AE0269F1124B9
:100CC0003019305D3193DEF6CF010895462F47701D
:100CD000405D4193B3E00FD0C9F7F6CF462F4F7078
:100CE000405D4A3318F0495D31FD4052419302D0D6
:100CF000A9F7EACFB4E0A69597958795779567957C
:100D0000BA95C9F700976105710508959B01AC017B
:100D10000A2E06945795479537952795BA95C9F7A2
:100D2000620F731F841F951FA01D0895F894FFCFB5
:100D3000000000002501A200EF00CD00E1006B01E2
:0A0D40006D6963203A2025640A0063
:00000001FF
